:100000000C9434000C9451000C9451000C94510049
:100010000C9451000C9451000C9451000C9451001C
:100020000C9451000C9451000C9451000C9451000C
:100030000C9451000C9451000C9451000C945100FC
:100040000C9451000C9451000C9451000C945100EC
:100050000C9451000C9451000C9451000C945100DC
:100060000C9451000C94510011241FBECFEFD8E026
:10007000DEBFCDBF11E0A0E0B1E0EAE6F1E002C0F2
:1000800005900D92A830B107D9F721E0A8E0B1E0C2
:1000900001C01D92AB30B207E1F70E9453000C94EF
:1000A000B3000C940000209A219A229A239A249A51
:1000B000259A259A8AB180718AB985B121E030E00C
:1000C0000090090102C0220F331F0A94E2F7822B2D
:1000D00085B941E061E070E04C9B42C0809108012D
:1000E0008111FACF409308012091090130910A0152
:1000F0002530310569F51092060135B1CB0101C0FB
:10010000880F2A95EAF78095832385B92091060107
:100110008091090190910A01222301F101969093A7
:100120000A018093090185B19B010090090102C079
:10013000220F331F0A94E2F7822B85B92FEF81EE4D
:1001400094E0215080409040E1F700C00000C4CF0F
:100150002115310591F640930601CFCF0197DFCFEE
:0A01600010920801B9CFF894FFCF08
:08016A0000010203040501007D
:00000001FF
